{
  "_format": "hh-sol-artifact-1",
  "contractName": "WavePortal",
  "sourceName": "contracts/WavePortal.sol",
  "abi": [
    {
      "inputs": [],
      "stateMutability": "payable",
      "type": "constructor"
    },
    {
      "anonymous": false,
      "inputs": [
        {
          "indexed": true,
          "internalType": "address",
          "name": "from",
          "type": "address"
        },
        {
          "indexed": false,
          "internalType": "uint256",
          "name": "timestamp",
          "type": "uint256"
        },
        {
          "indexed": false,
          "internalType": "string",
          "name": "message",
          "type": "string"
        },
        {
          "indexed": false,
          "internalType": "string",
          "name": "userName",
          "type": "string"
        }
      ],
      "name": "NewWave",
      "type": "event"
    },
    {
      "inputs": [],
      "name": "getAllWaves",
      "outputs": [
        {
          "components": [
            {
              "internalType": "address",
              "name": "waver",
              "type": "address"
            },
            {
              "internalType": "string",
              "name": "message",
              "type": "string"
            },
            {
              "internalType": "string",
              "name": "userName",
              "type": "string"
            },
            {
              "internalType": "uint256",
              "name": "timestamp",
              "type": "uint256"
            }
          ],
          "internalType": "struct WavePortal.Wave[]",
          "name": "",
          "type": "tuple[]"
        }
      ],
      "stateMutability": "view",
      "type": "function"
    },
    {
      "inputs": [],
      "name": "getTotalWaves",
      "outputs": [
        {
          "internalType": "uint256",
          "name": "",
          "type": "uint256"
        }
      ],
      "stateMutability": "view",
      "type": "function"
    },
    {
      "inputs": [
        {
          "internalType": "address",
          "name": "",
          "type": "address"
        }
      ],
      "name": "lastWavedAt",
      "outputs": [
        {
          "internalType": "uint256",
          "name": "",
          "type": "uint256"
        }
      ],
      "stateMutability": "view",
      "type": "function"
    },
    {
      "inputs": [
        {
          "internalType": "string",
          "name": "_message",
          "type": "string"
        },
        {
          "internalType": "string",
          "name": "_userName",
          "type": "string"
        }
      ],
      "name": "wave",
      "outputs": [],
      "stateMutability": "nonpayable",
      "type": "function"
    }
  ],
  "bytecode": "0x60806040526200003360405180606001604052806024815260200162001668602491396200005b60201b620007611760201c565b60644442620000439190620001a8565b6200004f919062000245565b600281905550620002ec565b620000fb8160405160240162000072919062000168565b6040516020818303038152906040527f41304fac000000000000000000000000000000000000000000000000000000007bffffffffffffffffffffffffffffffffffffffffffffffffffffffff19166020820180517bffffffffffffffffffffffffffffffffffffffffffffffffffffffff8381831617835250505050620000fe60201b60201c565b50565b60008151905060006a636f6e736f6c652e6c6f679050602083016000808483855afa5050505050565b600062000134826200018c565b62000140818562000197565b9350620001528185602086016200020f565b6200015d81620002db565b840191505092915050565b6000602082019050818103600083015262000184818462000127565b905092915050565b600081519050919050565b600082825260208201905092915050565b6000620001b58262000205565b9150620001c28362000205565b9250827fffffffffffffffffffffffffffffffffffffffffffffffffffffffffffffffff03821115620001fa57620001f96200027d565b5b828201905092915050565b6000819050919050565b60005b838110156200022f57808201518184015260208101905062000212565b838111156200023f576000848401525b50505050565b6000620002528262000205565b91506200025f8362000205565b925082620002725762000271620002ac565b5b828206905092915050565b7f4e487b7100000000000000000000000000000000000000000000000000000000600052601160045260246000fd5b7f4e487b7100000000000000000000000000000000000000000000000000000000600052601260045260246000fd5b6000601f19601f8301169050919050565b61136c80620002fc6000396000f3fe608060405234801561001057600080fd5b506004361061004c5760003560e01c806351872959146100515780639a2cdc081461006d578063a42a46631461008b578063bd43a908146100bb575b600080fd5b61006b60048036038101906100669190610b40565b6100d9565b005b61007561051b565b6040516100829190610fe9565b60405180910390f35b6100a560048036038101906100a09190610b17565b610566565b6040516100b29190610fe9565b60405180910390f35b6100c361057e565b6040516100d09190610eae565b60405180910390f35b42601e600460003373ffffffffffffffffffffffffffffffffffffffff1673ffffffffffffffffffffffffffffffffffffffff16815260200190815260200160002054610126919061111b565b10610166576040517f08c379a000000000000000000000000000000000000000000000000000000000815260040161015d90610fc9565b60405180910390fd5b42600460003373ffffffffffffffffffffffffffffffffffffffff1673ffffffffffffffffffffffffffffffffffffffff1681526020019081526020016000208190555060016000808282546101bc919061111b565b925050819055506102026040518060400160405280600d81526020017f2573206861732077617665642100000000000000000000000000000000000000815250336107fa565b6001339080600181540180825580915050600190039060005260206000200160009091909190916101000a81548173ffffffffffffffffffffffffffffffffffffffff021916908373ffffffffffffffffffffffffffffffffffffffff16021790555060646002544244610276919061111b565b610280919061111b565b61028a9190611221565b600281905550600360405180608001604052803373ffffffffffffffffffffffffffffffffffffffff16815260200184815260200183815260200142815250908060018154018082558091505060019003906000526020600020906004020160009091909190915060008201518160000160006101000a81548173ffffffffffffffffffffffffffffffffffffffff021916908373ffffffffffffffffffffffffffffffffffffffff16021790555060208201518160010190805190602001906103559291906109f7565b5060408201518160020190805190602001906103729291906109f7565b506060820151816003015550506032600254116104c5576103c86040518060400160405280600781526020017f257320776f6e210000000000000000000000000000000000000000000000000081525082610896565b6000655af3107a4000905047811115610416576040517f08c379a000000000000000000000000000000000000000000000000000000000815260040161040d90610fa9565b60405180910390fd5b60003373ffffffffffffffffffffffffffffffffffffffff168260405161043c90610e99565b60006040518083038185875af1925050503d8060008114610479576040519150601f19603f3d011682016040523d82523d6000602084013e61047e565b606091505b50509050806104c2576040517f08c379a00000000000000000000000000000000000000000000000000000000081526004016104b990610f89565b60405180910390fd5b50505b3373ffffffffffffffffffffffffffffffffffffffff167f0646f10b0148fe8db9a43af10b6956b53e1478c47afc7132c17e243449dfd33942848460405161050f93929190611004565b60405180910390a25050565b600061055e6040518060400160405280601781526020017f5765206861766520256420746f74616c20776176657321000000000000000000815250600054610932565b600054905090565b60046020528060005260406000206000915090505481565b60606003805480602002602001604051908101604052809291908181526020016000905b8282101561075857838290600052602060002090600402016040518060800160405290816000820160009054906101000a900473ffffffffffffffffffffffffffffffffffffffff1673ffffffffffffffffffffffffffffffffffffffff1673ffffffffffffffffffffffffffffffffffffffff16815260200160018201805461062b906111ef565b80601f0160208091040260200160405190810160405280929190818152602001828054610657906111ef565b80156106a45780601f10610679576101008083540402835291602001916106a4565b820191906000526020600020905b81548152906001019060200180831161068757829003601f168201915b505050505081526020016002820180546106bd906111ef565b80601f01602080910402602001604051908101604052809291908181526020018280546106e9906111ef565b80156107365780601f1061070b57610100808354040283529160200191610736565b820191906000526020600020905b81548152906001019060200180831161071957829003601f168201915b50505050508152602001600382015481525050815260200190600101906105a2565b50505050905090565b6107f7816040516024016107759190610ed0565b6040516020818303038152906040527f41304fac000000000000000000000000000000000000000000000000000000007bffffffffffffffffffffffffffffffffffffffffffffffffffffffff19166020820180517bffffffffffffffffffffffffffffffffffffffffffffffffffffffff83818316178352505050506109ce565b50565b6108928282604051602401610810929190610ef2565b6040516020818303038152906040527f319af333000000000000000000000000000000000000000000000000000000007bffffffffffffffffffffffffffffffffffffffffffffffffffffffff19166020820180517bffffffffffffffffffffffffffffffffffffffffffffffffffffffff83818316178352505050506109ce565b5050565b61092e82826040516024016108ac929190610f22565b6040516020818303038152906040527f4b5c4277000000000000000000000000000000000000000000000000000000007bffffffffffffffffffffffffffffffffffffffffffffffffffffffff19166020820180517bffffffffffffffffffffffffffffffffffffffffffffffffffffffff83818316178352505050506109ce565b5050565b6109ca8282604051602401610948929190610f59565b6040516020818303038152906040527f9710a9d0000000000000000000000000000000000000000000000000000000007bffffffffffffffffffffffffffffffffffffffffffffffffffffffff19166020820180517bffffffffffffffffffffffffffffffffffffffffffffffffffffffff83818316178352505050506109ce565b5050565b60008151905060006a636f6e736f6c652e6c6f679050602083016000808483855afa5050505050565b828054610a03906111ef565b90600052602060002090601f016020900481019282610a255760008555610a6c565b82601f10610a3e57805160ff1916838001178555610a6c565b82800160010185558215610a6c579182015b82811115610a6b578251825591602001919060010190610a50565b5b509050610a799190610a7d565b5090565b5b80821115610a96576000816000905550600101610a7e565b5090565b6000610aad610aa88461107a565b611049565b905082815260208101848484011115610ac557600080fd5b610ad08482856111ad565b509392505050565b600081359050610ae78161131f565b92915050565b600082601f830112610afe57600080fd5b8135610b0e848260208601610a9a565b91505092915050565b600060208284031215610b2957600080fd5b6000610b3784828501610ad8565b91505092915050565b60008060408385031215610b5357600080fd5b600083013567ffffffffffffffff811115610b6d57600080fd5b610b7985828601610aed565b925050602083013567ffffffffffffffff811115610b9657600080fd5b610ba285828601610aed565b9150509250929050565b6000610bb88383610e11565b905092915050565b610bc981611171565b82525050565b610bd881611171565b82525050565b6000610be9826110ba565b610bf381856110dd565b935083602082028501610c05856110aa565b8060005b85811015610c415784840389528151610c228582610bac565b9450610c2d836110d0565b925060208a01995050600181019050610c09565b50829750879550505050505092915050565b6000610c5e826110c5565b610c6881856110f9565b9350610c788185602086016111bc565b610c818161130e565b840191505092915050565b6000610c97826110c5565b610ca1818561110a565b9350610cb18185602086016111bc565b610cba8161130e565b840191505092915050565b6000610cd260278361110a565b91507f4661696c656420746f207769746864726177206d6f6e65792066726f6d20636f60008301527f6e74726163742e000000000000000000000000000000000000000000000000006020830152604082019050919050565b6000610d3860278361110a565b91507f636f6e74726163742069732062726f6b6520617373206e6f207072697a65206660008301527f6f7220796f752e000000000000000000000000000000000000000000000000006020830152604082019050919050565b6000610d9e60298361110a565b91507f4d7573742077616974203330207365636f6e6473206265666f7265207761766960008301527f6e6720616761696e2e00000000000000000000000000000000000000000000006020830152604082019050919050565b6000610e046000836110ee565b9150600082019050919050565b6000608083016000830151610e296000860182610bc0565b5060208301518482036020860152610e418282610c53565b91505060408301518482036040860152610e5b8282610c53565b9150506060830151610e706060860182610e7b565b508091505092915050565b610e84816111a3565b82525050565b610e93816111a3565b82525050565b6000610ea482610df7565b9150819050919050565b60006020820190508181036000830152610ec88184610bde565b905092915050565b60006020820190508181036000830152610eea8184610c8c565b905092915050565b60006040820190508181036000830152610f0c8185610c8c565b9050610f1b6020830184610bcf565b9392505050565b60006040820190508181036000830152610f3c8185610c8c565b90508181036020830152610f508184610c8c565b90509392505050565b60006040820190508181036000830152610f738185610c8c565b9050610f826020830184610e8a565b9392505050565b60006020820190508181036000830152610fa281610cc5565b9050919050565b60006020820190508181036000830152610fc281610d2b565b9050919050565b60006020820190508181036000830152610fe281610d91565b9050919050565b6000602082019050610ffe6000830184610e8a565b92915050565b60006060820190506110196000830186610e8a565b818103602083015261102b8185610c8c565b9050818103604083015261103f8184610c8c565b9050949350505050565b6000604051905081810181811067ffffffffffffffff821117156110705761106f6112df565b5b8060405250919050565b600067ffffffffffffffff821115611095576110946112df565b5b601f19601f8301169050602081019050919050565b6000819050602082019050919050565b600081519050919050565b600081519050919050565b6000602082019050919050565b600082825260208201905092915050565b600081905092915050565b600082825260208201905092915050565b600082825260208201905092915050565b6000611126826111a3565b9150611131836111a3565b9250827fffffffffffffffffffffffffffffffffffffffffffffffffffffffffffffffff0382111561116657611165611252565b5b828201905092915050565b600061117c82611183565b9050919050565b600073ffffffffffffffffffffffffffffffffffffffff82169050919050565b6000819050919050565b82818337600083830152505050565b60005b838110156111da5780820151818401526020810190506111bf565b838111156111e9576000848401525b50505050565b6000600282049050600182168061120757607f821691505b6020821081141561121b5761121a6112b0565b5b50919050565b600061122c826111a3565b9150611237836111a3565b92508261124757611246611281565b5b828206905092915050565b7f4e487b7100000000000000000000000000000000000000000000000000000000600052601160045260246000fd5b7f4e487b7100000000000000000000000000000000000000000000000000000000600052601260045260246000fd5b7f4e487b7100000000000000000000000000000000000000000000000000000000600052602260045260246000fd5b7f4e487b7100000000000000000000000000000000000000000000000000000000600052604160045260246000fd5b6000601f19601f8301169050919050565b61132881611171565b811461133357600080fd5b5056fea2646970667358221220dc0cec7198a154c7a0434824f8cf97a179ad32e6566c805a7c522d32546b19d864736f6c63430008000033596f20796f2c204920616d206120636f6e747261637420616e642049276d20736d617274",
  "linkReferences": {},
  "deployedLinkReferences": {}
}