{
  "_format": "hh-sol-artifact-1",
  "contractName": "WavePortal",
  "sourceName": "contracts/WavePortal.sol",
  "abi": [
    {
      "inputs": [],
      "stateMutability": "nonpayable",
      "type": "constructor"
    },
    {
      "anonymous": false,
      "inputs": [
        {
          "indexed": true,
          "internalType": "address",
          "name": "from",
          "type": "address"
        },
        {
          "indexed": false,
          "internalType": "uint256",
          "name": "timestamp",
          "type": "uint256"
        },
        {
          "indexed": false,
          "internalType": "string",
          "name": "message",
          "type": "string"
        }
      ],
      "name": "NewWave",
      "type": "event"
    },
    {
      "inputs": [],
      "name": "getAllWaves",
      "outputs": [
        {
          "components": [
            {
              "internalType": "address",
              "name": "waver",
              "type": "address"
            },
            {
              "internalType": "string",
              "name": "message",
              "type": "string"
            },
            {
              "internalType": "string",
              "name": "userName",
              "type": "string"
            },
            {
              "internalType": "uint256",
              "name": "timestamp",
              "type": "uint256"
            }
          ],
          "internalType": "struct WavePortal.Wave[]",
          "name": "",
          "type": "tuple[]"
        }
      ],
      "stateMutability": "view",
      "type": "function"
    },
    {
      "inputs": [],
      "name": "getTotalWaves",
      "outputs": [
        {
          "internalType": "uint256",
          "name": "",
          "type": "uint256"
        }
      ],
      "stateMutability": "view",
      "type": "function"
    },
    {
      "inputs": [
        {
          "internalType": "string",
          "name": "_message",
          "type": "string"
        },
        {
          "internalType": "string",
          "name": "_userName",
          "type": "string"
        }
      ],
      "name": "wave",
      "outputs": [],
      "stateMutability": "nonpayable",
      "type": "function"
    }
  ],
  "bytecode": "0x60806040523480156200001157600080fd5b506200004160405180606001604052806024815260200162000f57602491396200004760201b620004ca1760201c565b620001db565b620000e7816040516024016200005e919062000154565b6040516020818303038152906040527f41304fac000000000000000000000000000000000000000000000000000000007bffffffffffffffffffffffffffffffffffffffffffffffffffffffff19166020820180517bffffffffffffffffffffffffffffffffffffffffffffffffffffffff8381831617835250505050620000ea60201b60201c565b50565b60008151905060006a636f6e736f6c652e6c6f679050602083016000808483855afa5050505050565b6000620001208262000178565b6200012c818562000183565b93506200013e81856020860162000194565b6200014981620001ca565b840191505092915050565b6000602082019050818103600083015262000170818462000113565b905092915050565b600081519050919050565b600082825260208201905092915050565b60005b83811015620001b457808201518184015260208101905062000197565b83811115620001c4576000848401525b50505050565b6000601f19601f8301169050919050565b610d6c80620001eb6000396000f3fe608060405234801561001057600080fd5b50600436106100415760003560e01c806351872959146100465780639a2cdc0814610062578063bd43a90814610080575b600080fd5b610060600480360381019061005b91906107cf565b61009e565b005b61006a61029c565b6040516100779190610a80565b60405180910390f35b6100886102e7565b60405161009591906109dc565b60405180910390f35b60016000808282546100b09190610b92565b925050819055506100f66040518060400160405280600d81526020017f257320686173207761766564210000000000000000000000000000000000000081525033610563565b6001339080600181540180825580915050600190039060005260206000200160009091909190916101000a81548173ffffffffffffffffffffffffffffffffffffffff021916908373ffffffffffffffffffffffffffffffffffffffff160217905550600260405180608001604052803373ffffffffffffffffffffffffffffffffffffffff16815260200184815260200183815260200142815250908060018154018082558091505060019003906000526020600020906004020160009091909190915060008201518160000160006101000a81548173ffffffffffffffffffffffffffffffffffffffff021916908373ffffffffffffffffffffffffffffffffffffffff160217905550602082015181600101908051906020019061021e9291906106c4565b50604082015181600201908051906020019061023b9291906106c4565b506060820151816003015550503373ffffffffffffffffffffffffffffffffffffffff167f5f7e16dc676677766a70e9c5628aa6c54ddb8b6e5188e2ae1e1f17f1ffbea7164284604051610290929190610a9b565b60405180910390a25050565b60006102df6040518060400160405280601781526020017f5765206861766520256420746f74616c207761766573210000000000000000008152506000546105ff565b600054905090565b60606002805480602002602001604051908101604052809291908181526020016000905b828210156104c157838290600052602060002090600402016040518060800160405290816000820160009054906101000a900473ffffffffffffffffffffffffffffffffffffffff1673ffffffffffffffffffffffffffffffffffffffff1673ffffffffffffffffffffffffffffffffffffffff16815260200160018201805461039490610c66565b80601f01602080910402602001604051908101604052809291908181526020018280546103c090610c66565b801561040d5780601f106103e25761010080835404028352916020019161040d565b820191906000526020600020905b8154815290600101906020018083116103f057829003601f168201915b5050505050815260200160028201805461042690610c66565b80601f016020809104026020016040519081016040528092919081815260200182805461045290610c66565b801561049f5780601f106104745761010080835404028352916020019161049f565b820191906000526020600020905b81548152906001019060200180831161048257829003601f168201915b505050505081526020016003820154815250508152602001906001019061030b565b50505050905090565b610560816040516024016104de91906109fe565b6040516020818303038152906040527f41304fac000000000000000000000000000000000000000000000000000000007bffffffffffffffffffffffffffffffffffffffffffffffffffffffff19166020820180517bffffffffffffffffffffffffffffffffffffffffffffffffffffffff838183161783525050505061069b565b50565b6105fb8282604051602401610579929190610a20565b6040516020818303038152906040527f319af333000000000000000000000000000000000000000000000000000000007bffffffffffffffffffffffffffffffffffffffffffffffffffffffff19166020820180517bffffffffffffffffffffffffffffffffffffffffffffffffffffffff838183161783525050505061069b565b5050565b6106978282604051602401610615929190610a50565b6040516020818303038152906040527f9710a9d0000000000000000000000000000000000000000000000000000000007bffffffffffffffffffffffffffffffffffffffffffffffffffffffff19166020820180517bffffffffffffffffffffffffffffffffffffffffffffffffffffffff838183161783525050505061069b565b5050565b60008151905060006a636f6e736f6c652e6c6f679050602083016000808483855afa5050505050565b8280546106d090610c66565b90600052602060002090601f0160209004810192826106f25760008555610739565b82601f1061070b57805160ff1916838001178555610739565b82800160010185558215610739579182015b8281111561073857825182559160200191906001019061071d565b5b509050610746919061074a565b5090565b5b8082111561076357600081600090555060010161074b565b5090565b600061077a61077584610afc565b610acb565b90508281526020810184848401111561079257600080fd5b61079d848285610c24565b509392505050565b600082601f8301126107b657600080fd5b81356107c6848260208601610767565b91505092915050565b600080604083850312156107e257600080fd5b600083013567ffffffffffffffff8111156107fc57600080fd5b610808858286016107a5565b925050602083013567ffffffffffffffff81111561082557600080fd5b610831858286016107a5565b9150509250929050565b60006108478383610954565b905092915050565b61085881610be8565b82525050565b61086781610be8565b82525050565b600061087882610b3c565b6108828185610b5f565b93508360208202850161089485610b2c565b8060005b858110156108d057848403895281516108b1858261083b565b94506108bc83610b52565b925060208a01995050600181019050610898565b50829750879550505050505092915050565b60006108ed82610b47565b6108f78185610b70565b9350610907818560208601610c33565b61091081610d25565b840191505092915050565b600061092682610b47565b6109308185610b81565b9350610940818560208601610c33565b61094981610d25565b840191505092915050565b600060808301600083015161096c600086018261084f565b506020830151848203602086015261098482826108e2565b9150506040830151848203604086015261099e82826108e2565b91505060608301516109b360608601826109be565b508091505092915050565b6109c781610c1a565b82525050565b6109d681610c1a565b82525050565b600060208201905081810360008301526109f6818461086d565b905092915050565b60006020820190508181036000830152610a18818461091b565b905092915050565b60006040820190508181036000830152610a3a818561091b565b9050610a49602083018461085e565b9392505050565b60006040820190508181036000830152610a6a818561091b565b9050610a7960208301846109cd565b9392505050565b6000602082019050610a9560008301846109cd565b92915050565b6000604082019050610ab060008301856109cd565b8181036020830152610ac2818461091b565b90509392505050565b6000604051905081810181811067ffffffffffffffff82111715610af257610af1610cf6565b5b8060405250919050565b600067ffffffffffffffff821115610b1757610b16610cf6565b5b601f19601f8301169050602081019050919050565b6000819050602082019050919050565b600081519050919050565b600081519050919050565b6000602082019050919050565b600082825260208201905092915050565b600082825260208201905092915050565b600082825260208201905092915050565b6000610b9d82610c1a565b9150610ba883610c1a565b9250827fffffffffffffffffffffffffffffffffffffffffffffffffffffffffffffffff03821115610bdd57610bdc610c98565b5b828201905092915050565b6000610bf382610bfa565b9050919050565b600073ffffffffffffffffffffffffffffffffffffffff82169050919050565b6000819050919050565b82818337600083830152505050565b60005b83811015610c51578082015181840152602081019050610c36565b83811115610c60576000848401525b50505050565b60006002820490506001821680610c7e57607f821691505b60208210811415610c9257610c91610cc7565b5b50919050565b7f4e487b7100000000000000000000000000000000000000000000000000000000600052601160045260246000fd5b7f4e487b7100000000000000000000000000000000000000000000000000000000600052602260045260246000fd5b7f4e487b7100000000000000000000000000000000000000000000000000000000600052604160045260246000fd5b6000601f19601f830116905091905056fea2646970667358221220a95f80342b84e37bcd16412c6549ee4192e8b5553a37f4ed66c7aeb623595e1864736f6c63430008000033596f20796f2c204920616d206120636f6e747261637420616e642049276d20736d617274",
  "linkReferences": {},
  "deployedLinkReferences": {}
}