{
  "_format": "hh-sol-artifact-1",
  "contractName": "WavePortal",
  "sourceName": "contracts/WavePortal.sol",
  "abi": [
    {
      "inputs": [],
      "stateMutability": "payable",
      "type": "constructor"
    },
    {
      "anonymous": false,
      "inputs": [
        {
          "indexed": true,
          "internalType": "address",
          "name": "from",
          "type": "address"
        },
        {
          "indexed": false,
          "internalType": "uint256",
          "name": "timestamp",
          "type": "uint256"
        },
        {
          "indexed": false,
          "internalType": "string",
          "name": "message",
          "type": "string"
        }
      ],
      "name": "NewWave",
      "type": "event"
    },
    {
      "inputs": [],
      "name": "getAllWaves",
      "outputs": [
        {
          "components": [
            {
              "internalType": "address",
              "name": "waver",
              "type": "address"
            },
            {
              "internalType": "string",
              "name": "message",
              "type": "string"
            },
            {
              "internalType": "string",
              "name": "userName",
              "type": "string"
            },
            {
              "internalType": "uint256",
              "name": "timestamp",
              "type": "uint256"
            }
          ],
          "internalType": "struct WavePortal.Wave[]",
          "name": "",
          "type": "tuple[]"
        }
      ],
      "stateMutability": "view",
      "type": "function"
    },
    {
      "inputs": [],
      "name": "getTotalWaves",
      "outputs": [
        {
          "internalType": "uint256",
          "name": "",
          "type": "uint256"
        }
      ],
      "stateMutability": "view",
      "type": "function"
    },
    {
      "inputs": [
        {
          "internalType": "string",
          "name": "_message",
          "type": "string"
        },
        {
          "internalType": "string",
          "name": "_userName",
          "type": "string"
        }
      ],
      "name": "wave",
      "outputs": [],
      "stateMutability": "nonpayable",
      "type": "function"
    }
  ],
  "bytecode": "0x6080604052620000336040518060600160405280602481526020016200118b602491396200003960201b620005c61760201c565b620001cd565b620000d98160405160240162000050919062000146565b6040516020818303038152906040527f41304fac000000000000000000000000000000000000000000000000000000007bffffffffffffffffffffffffffffffffffffffffffffffffffffffff19166020820180517bffffffffffffffffffffffffffffffffffffffffffffffffffffffff8381831617835250505050620000dc60201b60201c565b50565b60008151905060006a636f6e736f6c652e6c6f679050602083016000808483855afa5050505050565b600062000112826200016a565b6200011e818562000175565b93506200013081856020860162000186565b6200013b81620001bc565b840191505092915050565b6000602082019050818103600083015262000162818462000105565b905092915050565b600081519050919050565b600082825260208201905092915050565b60005b83811015620001a657808201518184015260208101905062000189565b83811115620001b6576000848401525b50505050565b6000601f19601f8301169050919050565b610fae80620001dd6000396000f3fe608060405234801561001057600080fd5b50600436106100415760003560e01c806351872959146100465780639a2cdc0814610062578063bd43a90814610080575b600080fd5b610060600480360381019061005b91906108cb565b61009e565b005b61006a610398565b6040516100779190610cb7565b60405180910390f35b6100886103e3565b6040516100959190610bd3565b60405180910390f35b60016000808282546100b09190610dd4565b925050819055506100f66040518060400160405280600d81526020017f25732068617320776176656421000000000000000000000000000000000000008152503361065f565b6001339080600181540180825580915050600190039060005260206000200160009091909190916101000a81548173ffffffffffffffffffffffffffffffffffffffff021916908373ffffffffffffffffffffffffffffffffffffffff160217905550600260405180608001604052803373ffffffffffffffffffffffffffffffffffffffff16815260200184815260200183815260200142815250908060018154018082558091505060019003906000526020600020906004020160009091909190915060008201518160000160006101000a81548173ffffffffffffffffffffffffffffffffffffffff021916908373ffffffffffffffffffffffffffffffffffffffff160217905550602082015181600101908051906020019061021e9291906107c0565b50604082015181600201908051906020019061023b9291906107c0565b506060820151816003015550503373ffffffffffffffffffffffffffffffffffffffff167f5f7e16dc676677766a70e9c5628aa6c54ddb8b6e5188e2ae1e1f17f1ffbea7164284604051610290929190610cd2565b60405180910390a26000655af3107a40009050478111156102e6576040517f08c379a00000000000000000000000000000000000000000000000000000000081526004016102dd90610c97565b60405180910390fd5b60003373ffffffffffffffffffffffffffffffffffffffff168260405161030c90610bbe565b60006040518083038185875af1925050503d8060008114610349576040519150601f19603f3d011682016040523d82523d6000602084013e61034e565b606091505b5050905080610392576040517f08c379a000000000000000000000000000000000000000000000000000000000815260040161038990610c77565b60405180910390fd5b50505050565b60006103db6040518060400160405280601781526020017f5765206861766520256420746f74616c207761766573210000000000000000008152506000546106fb565b600054905090565b60606002805480602002602001604051908101604052809291908181526020016000905b828210156105bd57838290600052602060002090600402016040518060800160405290816000820160009054906101000a900473ffffffffffffffffffffffffffffffffffffffff1673ffffffffffffffffffffffffffffffffffffffff1673ffffffffffffffffffffffffffffffffffffffff16815260200160018201805461049090610ea8565b80601f01602080910402602001604051908101604052809291908181526020018280546104bc90610ea8565b80156105095780601f106104de57610100808354040283529160200191610509565b820191906000526020600020905b8154815290600101906020018083116104ec57829003601f168201915b5050505050815260200160028201805461052290610ea8565b80601f016020809104026020016040519081016040528092919081815260200182805461054e90610ea8565b801561059b5780601f106105705761010080835404028352916020019161059b565b820191906000526020600020905b81548152906001019060200180831161057e57829003601f168201915b5050505050815260200160038201548152505081526020019060010190610407565b50505050905090565b61065c816040516024016105da9190610bf5565b6040516020818303038152906040527f41304fac000000000000000000000000000000000000000000000000000000007bffffffffffffffffffffffffffffffffffffffffffffffffffffffff19166020820180517bffffffffffffffffffffffffffffffffffffffffffffffffffffffff8381831617835250505050610797565b50565b6106f78282604051602401610675929190610c17565b6040516020818303038152906040527f319af333000000000000000000000000000000000000000000000000000000007bffffffffffffffffffffffffffffffffffffffffffffffffffffffff19166020820180517bffffffffffffffffffffffffffffffffffffffffffffffffffffffff8381831617835250505050610797565b5050565b6107938282604051602401610711929190610c47565b6040516020818303038152906040527f9710a9d0000000000000000000000000000000000000000000000000000000007bffffffffffffffffffffffffffffffffffffffffffffffffffffffff19166020820180517bffffffffffffffffffffffffffffffffffffffffffffffffffffffff8381831617835250505050610797565b5050565b60008151905060006a636f6e736f6c652e6c6f679050602083016000808483855afa5050505050565b8280546107cc90610ea8565b90600052602060002090601f0160209004810192826107ee5760008555610835565b82601f1061080757805160ff1916838001178555610835565b82800160010185558215610835579182015b82811115610834578251825591602001919060010190610819565b5b5090506108429190610846565b5090565b5b8082111561085f576000816000905550600101610847565b5090565b600061087661087184610d33565b610d02565b90508281526020810184848401111561088e57600080fd5b610899848285610e66565b509392505050565b600082601f8301126108b257600080fd5b81356108c2848260208601610863565b91505092915050565b600080604083850312156108de57600080fd5b600083013567ffffffffffffffff8111156108f857600080fd5b610904858286016108a1565b925050602083013567ffffffffffffffff81111561092157600080fd5b61092d858286016108a1565b9150509250929050565b60006109438383610b36565b905092915050565b61095481610e2a565b82525050565b61096381610e2a565b82525050565b600061097482610d73565b61097e8185610d96565b93508360208202850161099085610d63565b8060005b858110156109cc57848403895281516109ad8582610937565b94506109b883610d89565b925060208a01995050600181019050610994565b50829750879550505050505092915050565b60006109e982610d7e565b6109f38185610db2565b9350610a03818560208601610e75565b610a0c81610f67565b840191505092915050565b6000610a2282610d7e565b610a2c8185610dc3565b9350610a3c818560208601610e75565b610a4581610f67565b840191505092915050565b6000610a5d602783610dc3565b91507f4661696c656420746f207769746864726177206d6f6e65792066726f6d20636f60008301527f6e747261637420000000000000000000000000000000000000000000000000006020830152604082019050919050565b6000610ac3602983610dc3565b91507f596f2c207468697320636f6e74726163742063616e2774206576656e2070617960008301527f20796f75206f75742100000000000000000000000000000000000000000000006020830152604082019050919050565b6000610b29600083610da7565b9150600082019050919050565b6000608083016000830151610b4e600086018261094b565b5060208301518482036020860152610b6682826109de565b91505060408301518482036040860152610b8082826109de565b9150506060830151610b956060860182610ba0565b508091505092915050565b610ba981610e5c565b82525050565b610bb881610e5c565b82525050565b6000610bc982610b1c565b9150819050919050565b60006020820190508181036000830152610bed8184610969565b905092915050565b60006020820190508181036000830152610c0f8184610a17565b905092915050565b60006040820190508181036000830152610c318185610a17565b9050610c40602083018461095a565b9392505050565b60006040820190508181036000830152610c618185610a17565b9050610c706020830184610baf565b9392505050565b60006020820190508181036000830152610c9081610a50565b9050919050565b60006020820190508181036000830152610cb081610ab6565b9050919050565b6000602082019050610ccc6000830184610baf565b92915050565b6000604082019050610ce76000830185610baf565b8181036020830152610cf98184610a17565b90509392505050565b6000604051905081810181811067ffffffffffffffff82111715610d2957610d28610f38565b5b8060405250919050565b600067ffffffffffffffff821115610d4e57610d4d610f38565b5b601f19601f8301169050602081019050919050565b6000819050602082019050919050565b600081519050919050565b600081519050919050565b6000602082019050919050565b600082825260208201905092915050565b600081905092915050565b600082825260208201905092915050565b600082825260208201905092915050565b6000610ddf82610e5c565b9150610dea83610e5c565b9250827fffffffffffffffffffffffffffffffffffffffffffffffffffffffffffffffff03821115610e1f57610e1e610eda565b5b828201905092915050565b6000610e3582610e3c565b9050919050565b600073ffffffffffffffffffffffffffffffffffffffff82169050919050565b6000819050919050565b82818337600083830152505050565b60005b83811015610e93578082015181840152602081019050610e78565b83811115610ea2576000848401525b50505050565b60006002820490506001821680610ec057607f821691505b60208210811415610ed457610ed3610f09565b5b50919050565b7f4e487b7100000000000000000000000000000000000000000000000000000000600052601160045260246000fd5b7f4e487b7100000000000000000000000000000000000000000000000000000000600052602260045260246000fd5b7f4e487b7100000000000000000000000000000000000000000000000000000000600052604160045260246000fd5b6000601f19601f830116905091905056fea264697066735822122063770e12c7ec0bc0030b9d90ebaaa52b452f64b03e227b8d0b34381b200f88e264736f6c63430008000033596f20796f2c204920616d206120636f6e747261637420616e642049276d20736d617274",
  "linkReferences": {},
  "deployedLinkReferences": {}
}